:100000000C9434000C9446000C9446000C9446006A
:100010000C9448000C9446000C9446000C94460046
:100020000C9446000C9446000C9446000C94460038
:100030000C9446000C9446000C9446000C94460028
:100040000C9446000C9446000C9446000C94460018
:100050000C9446000C9446000C9446000C94460008
:100060000C9446000C94460011241FBECFEFD8E03C
:10007000DEBFCDBF21E0A0E0B1E001C01D92A23003
:10008000B207E1F70E9498000C94A7000C940000BE
:100090001F920F920FB60F9211248F939F9396B1D8
:1000A00080910001892796B19093000180FF11C0D3
:1000B000309B03C0319B03C008C0319B06C08091B8
:1000C00001018150809301010CC0809101018F5F7B
:1000D000F9CF85FF06C0359904C08BB190E289271E
:1000E0008BB99F918F910F900FBE0F901F90189515
:1000F00084B5836084BD84B5806C84BD85B5816022
:1001000085BD16BC08958AB180668AB93898399839
:1001100088B1836088B93D98459AE8E6F0E080812F
:1001200082608083ECE6F0E08081856380830895BF
:100130000E9478000E94830078948091010187BD1D
:1001400089EF90E00197F1F700C00000F6CFF89436
:02015000FFCFDF
:00000001FF
