:100000000C9434000C9446000C9446000C9446006A
:100010000C9448000C9446000C9446000C94460046
:100020000C9446000C9446000C9446000C94460038
:100030000C9446000C9446000C9446000C94460028
:100040000C9446000C9446000C9446000C94460018
:100050000C9446000C9446000C9446000C94460008
:100060000C9446000C94460011241FBECFEFD8E03C
:10007000DEBFCDBF21E0A0E0B1E001C01D92A43001
:10008000B207E1F70E9483000C94A6000C940000D4
:100090001F920F920FB60F9211248F939F9396B1D8
:1000A00080910001892796B19093000180FF11C0D3
:1000B000309B03C0319B03C008C0319B06C08091B8
:1000C00003018150809303010CC0809103018F5F75
:1000D000F9CF85FF06C0359904C08BB190E289271E
:1000E0008BB99F918F910F900FBE0F901F90189515
:1000F00084B5836084BD84B5806C84BD85B5816022
:1001000085BD16BC08950E94780078948AB18066F7
:100110008AB93898399888B1836088B93D98459AEA
:100120008091680082608093680080916C00856394
:1001300080936C008FEF87BD8091030187BD89EFAD
:1001400090E00197F1F700C00000F6CFF894FFCFE0
:00000001FF
