:100000000C9434000C943E000C943E000C943E0082
:100010000C943E000C943E000C943E000C943E0068
:100020000C943E000C943E000C943E000C943E0058
:100030000C943E000C943E000C943E000C943E0048
:100040000C943E000C943E000C943E000C943E0038
:100050000C943E000C943E000C943E000C943E0028
:100060000C943E000C943E0011241FBECFEFD8E04C
:10007000DEBFCDBF0E9440000C9480000C940000B5
:100080008AB188668AB95B9A2FE38DE093E02150AC
:1000900080409040E1F700C000005B982FE38DE0C6
:1000A00093E0215080409040E1F700C000005E9A4C
:1000B0002FE38DE093E0215080409040E1F700C0B5
:1000C00000005E982FE38DE093E021508040904047
:1000D000E1F700C000005D9A2FE38DE093E021502E
:1000E00080409040E1F700C000005D982FE38DE074
:1000F00093E0215080409040E1F700C00000C3CF62
:04010000F894FFCFA1
:00000001FF
