:100000000C9434000C943E000C943E000C943E0082
:100010000C9440000C943E000C943E000C943E0066
:100020000C943E000C943E000C943E000C943E0058
:100030000C943E000C943E000C943E000C943E0048
:100040000C943E000C943E000C943E000C943E0038
:100050000C943E000C943E000C943E000C943E0028
:100060000C943E000C943E0011241FBECFEFD8E04C
:10007000DEBFCDBF0E945C000C9460000C940000B9
:100080001F920F920FB60F9211248F938FEF8BB99F
:100090008F910F900FBE0F901F9018953B98439A29
:1000A000E8E6F0E0808182608083ECE6F0E0808129
:1000B00088608083559A08950E944E007894FFCFFF
:0400C000F894FFCFE2
:00000001FF
