:100000000C9434000C943E000C943E000C943E0082
:100010000C943E000C943E000C943E000C943E0068
:100020000C943E000C943E000C943E000C943E0058
:100030000C943E000C943E000C943E000C943E0048
:100040000C943E000C943E000C943E000C943E0038
:100050000C943E000C943E000C943E000C943E0028
:100060000C943E000C943E0011241FBECFEFD8E04C
:10007000DEBFCDBF0E945A000C94B6000C94000065
:1000800084B5836084BDE0EBF0E080818360808391
:1000900084B5806F84BD80818063808385B58160F5
:1000A00085BDE1EBF0E080818160808316BC109219
:1000B000B20008958AB188668AB98FEF87BD88BD7E
:1000C0008093B40080E090E08F3F910509F05CF4EC
:1000D000282F209527BDE7E8F3E13197F1F700C01D
:1000E00000000196F1CF80E090E087BDE7E8F3E102
:1000F0003197F1F700C0000001968115F1E09F07EC
:10010000A1F78FEF90E088BDE7E8F3E13197F1F7D1
:1001100000C000000197B8F780E090E088BDE7E8F4
:10012000F3E13197F1F700C0000001968115F1E08D
:100130009F07A1F78FEF90E08093B400E7E8F3E129
:100140003197F1F700C000000197B0F780E090E030
:100150008093B400E7E8F3E13197F1F700C00000C5
:1001600001968115F1E09F0799F7ACCFF894FFCF86
:00000001FF
