:100000000C9434000C943E000C943E000C943E0082
:100010000C943E000C943E000C943E000C943E0068
:100020000C943E000C943E000C943E000C943E0058
:100030000C943E000C943E000C943E000C943E0048
:100040000C943E000C943E000C943E000C943E0038
:100050000C943E000C943E000C943E000C943E0028
:100060000C943E000C943E0011241FBECFEFD8E04C
:10007000DEBFCDBF0E945A000C9471000C940000AA
:1000800084B5836084BDE0EBF0E080818360808391
:1000900084B5806F84BD80818063808385B58160F5
:1000A00085BDE1EBF0E080818160808316BC109219
:1000B000B20008958AB188668AB98FEF87BD88BD7E
:1000C0008093B4005E9A89EF90E00197F1F700C049
:1000D00000005E9889EC98E00197F1F700C00000FD
:0600E000F1CFF894FFCF00
:00000001FF
