:100000000C9434000C9451000C9451000C94510049
:100010000C9453000C9451000C9451000C9451001A
:100020000C9451000C9451000C9451000C9451000C
:100030000C9451000C9451000C9451000C945100FC
:100040000C9451000C9451000C9451000C945100EC
:100050000C9451000C9451000C9451000C945100DC
:100060000C9451000C94510011241FBECFEFD8E026
:10007000DEBFCDBF11E0A0E0B1E0EAEFF1E002C0E9
:1000800005900D92A430B107D9F721E0A4E0B1E0CA
:1000900001C01D92A730B207E1F70E94E2000C9464
:1000A000FB000C9400001F920F920FB60F921124C8
:1000B0008F939F9396B180910601892796B1909373
:1000C000060180FF37C08091040190910501309BAB
:1000D00003C0319B03C019C0319B17C0009731F496
:1000E0008091000181508093000137C081309105DB
:1000F00031F4809101018150809301012EC002975B
:1001000061F580910201815012C0009721F4809125
:1001100000018F5FE8CF8130910521F480910101CA
:100120008F5FEACF0297C9F4809102018F5F8093BD
:10013000020113C085FF11C035990FC080910401E1
:100140009091050101969093050180930401039716
:1001500021F410920501109204019F918F910F904C
:100160000FBE0F901F90189584B5836084BDE0EB9F
:10017000F0E080818360808384B5806F84BD80815E
:100180008063808385B5816085BDE1EBF0E080818F
:100190008160808316BC1092B2008AB188668AB9E9
:1001A0003898399888B1836088B93D98459AE8E6CF
:1001B000F0E0808182608083ECE6F0E080818563FE
:1001C000808308950E94B40078948FEF88BD87BD26
:1001D0008093B4008091000187BD8091010188BDAA
:1001E000809102018093B40089EF90E00197F1F7CC
:0A01F00000C00000EFCFF894FFCF2D
:0401FA00FFFFFF0004
:00000001FF
